:100000000EC11DC12EC21BC11AC119C118C117C111
:1000100016C115C114C113C14CC211C110C1FFFFDB
:10002000FFFFFFFFFFFFFFFFFFFFFFFF06000600D0
:10003000060006000A000D0010001300160018004C
:100040001A001D001F0021002300250027002900A1
:100050002B002D002F003000320034003600370016
:1000600039003B003C003E003F004100430044009B
:100070004600470049004A004C004D004F00500028
:100080005100530054005600570058005A005B00BE
:100090005D005E005F006100620063006400660056
:1000A000670068006A006B006C006D006F007000F4
:1000B00071007200740075007600770078007A0095
:1000C0007B007C007D007E00800081008200830038
:1000D000840085008700880089008A008B008C00DE
:1000E0008D008F0090009100920093009400950085
:1000F0009600970098009A009B009C009D009E002F
:100100009F00A000A100A200A300A400A500A600DB
:10011000A700A800A900AB00AC00AD00AE00AF0086
:10012000B000B100B200B300B400B500B600B70033
:10013000B800B900BA00BB00BC00BD00BE00BF00E3
:10014000C000C100C200C300C400C500C600C70093
:10015000C800C900CA00CA00CB00CC00CD00CE0048
:10016000CF00D000D100D200D300D400D500D600FB
:10017000D700D800D900DA00DB00DC00DC00DD00AD
:10018000DE00DF00E000E100E200E300E400E50063
:10019000E600E700E800E800E900EA00EB00EC0018
:1001A000ED00EE00EF00F000F100F100F200F300CE
:1001B000F400F500F600F700F800F900F900FA0085
:1001C000FB00FC00FD00FE00FF000001000101013A
:1001D00002010301040105010601070107010801ED
:1001E00009010A010B010C010D010D010E010F01A6
:1001F0001001110112011201130114011501160160
:1002000017011801180119011A011B011C011D0118
:100210001D011E011F0120012101220122011124C3
:100220001FBECFE5D2E0DEBFCDBF10E0A0E6B0E05C
:1002300001C01D92A736B107E1F72FD097C1E0CEDC
:1002400087B1836287B986B1866086B90895379A87
:10025000089537980895369A80E29EE40197F1F761
:10026000349BFECF85B10895E82FF0E0EE0FFF1F1D
:10027000E25EFF4F25913491C901089548EC50E0AA
:1002800009C028EE33E0FA013197F1F721503040F0
:10029000D1F701970097A9F70895FF920F931F9345
:1002A000CF93DF9323D1F4D0CBDFBA9AC29808EC76
:1002B00010E0FF24F394E6D0882309F4A5C027D1E9
:1002C00010926500C4DF88EE93E0F8013197F1F7F2
:1002D0000197D9F77EC0BFDF80936000C5DF9093A0
:1002E0006200809361002FEF8F3F920749F4C29A1A
:1002F00088E893E1F8013197F1F70197D9F769C0E0
:100300008436910564F4C29A28EE33E0F8013197FF
:10031000F1F721503040D1F7C298019759C023E03E
:10032000883E920714F5C29A28EE33E0F80131971F
:10033000F1F721503040D1F7C29828EE33E0F801B0
:100340003197F1F721503040D1F7C29A28EE33E0CF
:10035000F8013197F1F721503040D1F7C2986AE0A7
:1003600070E0DDD0CB01039733C0C29A28EE33E0B2
:10037000F8013197F1F721503040D1F7C29828EEBB
:1003800033E0F8013197F1F721503040D1F7C29AAC
:1003900028EE33E0F8013197F1F721503040D1F7E2
:1003A000C29828EE33E0F8013197F1F72150304040
:1003B000D1F7C29A28EE33E0F8013197F1F72150D6
:1003C0003040D1F7C29864E670E0A9D0CB01059720
:1003D00055DFB49980CF80916100909162006AE00E
:1003E00070E09DD0709364006093630032DF809171
:1003F0006100909162008F5F9F4F21F07ED0F0925C
:10040000650001C0C29841D080916500882339F110
:10041000C0916300D09164001C161D064CF4CE01FF
:1004200057D0C81BD109D0936400C093630017C094
:1004300080916100909162006AE070E070D07093EA
:10044000640060936300C29AC198B99A80ED97E006
:10045000F8013197F1F70197D9F7C298B9981DD0F3
:100460002ACF1F920F920FB60F9211248F93B49B35
:1004700003C081E0809366008F910F900FBE0F90B4
:100480001F90189580916600089510926600089557
:100490008BB780628BBFAC9A0895789485B78062E1
:1004A00085BF85B7806185BF889585B78F7D85BFFE
:1004B00008951F920F920FB60F9211248F9381B55A
:1004C000806481BD8F910F900FBE0F901F90189583
:1004D00081B5806181BD81B58E7D81BD81B586602C
:1004E00081BD81B58F7E81BD81E0089580B58E602C
:1004F00080BD88E090E0ECDF089581B5806181BD2A
:1005000081B5886481BD81B58F7E81BD089514BE9B
:1005100081B5886181BD81B5877A81BD089597FBDA
:10052000092E07260AD077FD04D00CD006D0002073
:100530001AF4709561957F4F0895F6F7909581951F
:100540009F4F0895AA1BBB1B51E107C0AA1FBB1FE9
:10055000A617B70710F0A61BB70B881F991F5A954F
:10056000A9F780959095BC01CD010895F894FFCF2F
:00000001FF
